:030000000207688C
:0C076800787FE4F6D8FD7581530207AFDE
:0D0BDE007FFA7E00120BEBD2B77FFA7E008B
:100BEB007C007D0F12037FE4FDFCC3ED9FEC9E5058
:080BFB00070DBD00010C80F2A2
:010C030022CE
:050D0000D2B6D2B722BB
:100C5600D2B7D2B67FF47E01120BEBC2B67FF47E1A
:040C660001020BEB91
:100C6A00C2B7120BE7D2B6120BDEC2B67FFA7E000B
:030C7A00020BEB7F
:100C7D00C2B7120BE7C2B6120BDED2B67FFA7E00F8
:030C8D00020BEB6C
:100C9000C2B7120BE7C2B6120BE7D2B77FF47E01E0
:030CA000020BEB59
:100CA300C2B7120BE7D2B6120BE7D2B77FF47E01BD
:030CB300020BEB46
:020B0600AB073B
:100B0800E4FAC2B7120BE7EBA802088002C333D895
:100B1800FC30E704D2B68002C2B6120BE7D2B77F28
:100B2800F47E01120BEB0ABA08D8C2B7D2B67FF42A
:100B38007E01120BEBD2B77FF47E01120BEBA2B64B
:010B4800228A
:100B8600E4FBFAC2B7D2B67FF47E01120BE2A2B63C
:100B9600E433F9C374079AFFE9A807088002C33350
:0D0BA600D8FC4203120BE70ABA08D8AF03CF
:010BB300221F
:100C230002220000010A01011100010B00013B1423
:0C0C33000239000002080000022D000041
:100CB600758910758DB8758B0CD28E308FFDC28EEE
:030CC600C28F22B8
:100CC900758910758DFF758BF1D28E308FFDC28EAF
:030CD900C28F22A5
:080CF800C2B1120CB6D2B12208
:0A0CEE0020B1FD30B1FD20B1FD2260
:100BB400E4FFFEFDFC30B1FD120CC9EF25E0FFEEB1
:100BC40033FE30B106EF4401FF800020B1FD0DBDBE
:090BD40000010CED64084C70DC1A
:010BDD0022F5
:1009C900120CF8120CEE120BB48E2B8F2C120BB4E6
:1009D9008E278F28120BB48E298F2A120BB48E25DD
:1009E9008F26120BB48E1B8F1CE52C2528FFE52BB7
:1009F9003527FEE52A2FFFE5293EFEE5262FFFE5EF
:100A0900253EFEEF651C7003EE651B600280B1AEEA
:040A190029AF2A22B5
:100C4000EF75F00A84F537EF75F00A8485F0387F88
:060C5000647E00020CDCD2
:1007F4008B3E8A3F894090000112030CF51075F07E
:100804000A84F52FE51075F00A8485F0307F647E44
:1008140000120CDCAB3EAA3FA94090000212030C6C
:10082400F51D75F00A84F531E51D75F00A8485F02F
:10083400327F647E00120CDCAF3BEF75F00A1202CB
:10084400D1F533AF3BEF75F00A1202D185F034AB2A
:100854003EAA3FA94090000312030CFFF53D75F03A
:100864000A84F535E53D75F00A8485F0368F3D7FC1
:06087400647E00020CDCB2
:10056C008B3E8A3F894090000212030CF51975F0FE
:10057C000A84F512E51975F00A8485F0137F647E00
:10058C0000120CDCAB3EAA3FA94090000112030CF8
:10059C00F53C75F00A84F514E53C75F00A8485F099
:1005AC00157F647E00120CDCAB3EAA3FA940120200
:1005BC00F3F52475F00A84F516E52475F00A8485A4
:1005CC00F0177F647E00120CDCAB3EAA3FA9409072
:1005DC00000312030CF51AF51890000212030CFF1D
:1005EC003395E0FE7C007D3C12036D9000011203FC
:1005FC000CFD3395E0FCEF2DFBEE3CFAAF1A7E00C0
:10060C007C027DD012036DEF2BFFEE3AFEE48F21BE
:0C061C008E20F51FF51E7F64FE020CDC32
:10062800E518B40104D2B38012E518700CC2B37F88
:1006380064FE120CDCD2B2800BC2B37F647E00125F
:100648000CDCC2B27F647E00120CDCE4F540742F2F
:100658002540F8E6F5907F0A7E00120CDC8540A064
:100668007F0A7E00120CDCC2B07F0A7E00120CDC0E
:10067800D2B07F0A7E00120CDC0540C3E5406480DE
:10068800948A40CA7F647E00120CDCE4F540741240
:100698002540F8E6F5907F0A7E00120CDCE5402440
:1006A8000AF5A07F0A7E00120CDCC2B07F0A7E0029
:1006B800120CDCD2B07F0A7E00120CDC0540C3E5C8
:0E06C800406480948640C77F647E00020CDC94
:10000300E4F508F509F539F53A2080367F887E1343
:10001300120CDC20802C3080FD752200752302E554
:100023000964014508700C852443AB3CAD19AF1A34
:10003300120971754304AB3DAD1DAF10120ABC022A
:100043000167E4FF7E0A782FE4F608DEFC7E007F7A
:100053000AE51975F00A84F512E51975F00A848525
:10006300F013E53C75F00A84F514E53C75F00A8459
:1000730085F015E52475F00A84F516E52475F00A74
:100083008485F017851A181206282081527F887EEE
:1000930013120CDC2081487508007509013081FDBD
:1000A300E539703BE53A14601514602014602B2485
:1000B30003702C1519E519702675190C8021153C50
:1000C300E53CC3943C4018753C3B80131524E52460
:1000D300C3943C400A75243B8005051A531A01203A
:1000E30082537F887E13120CDC20824975080075C9
:1000F30009013082FDE539703CE53A14601814605B
:100103002214602C2403702D0519E519D3940C4097
:1001130024751901801F053CE53C75F03C8485F08E
:100123003C80120524E52475F03C8485F024800589
:10013300051A531A0130830302000C7F887E1312C1
:100143000CDC30830302000C3083FD053AE53A7082
:10015300020539AE39FF7C007D041203D48C398D3E
:0B0163003A02000C7F647E00020CDCFE
:10016E00E4F539F53AC3E5239402E52264809480E0
:10017E0040030202CAE4FF7E067812E4F608DEFCB3
:10018E007E007F06751802E4F537F538E51075F038
:10019E000A84F52FE51075F00A8485F030E51D759B
:1001AE00F00A84F531E51D75F00A8485F032E53BE1
:1001BE0075F00A84F533E53B75F00A8485F034E575
:1001CE003D75F00A84F535E53D75F00A8485F03607
:1001DE0012062820814D7F887E13120CDC2081436D
:1001EE003081FDE539703CE53A14601514601A143F
:1001FE0060252403702D1510E510702775101F80D3
:10020E0022D51D1F751D0C801A153BE53BD394633B
:10021E004011753B63800C153DE53DD3946340035F
:10022E00753D632082547F887E13120CDC20824A37
:10023E003082FDE5397043E53A14601814602314DA
:10024E00602D240370340510E510D3941F402B75D8
:10025E0010018026051DE51DD3940C401D751D0152
:10026E008018053BE53B75F0648485F03B800B05FB
:10027E003DE53D75F0648485F03D2083237F887EC7
:10028E0013120CDC2083193083FD053AE53A700217
:10029E000539AE39FF7C007D041203D48C398D3ABA
:1002AE003080030201737F887E13120CDC308003D2
:1002BE000201733080FD1200030201737F647E0021
:0302CE00020CDC43
:10042000E4F53EF53FF539F53AC3E5239402E522BC
:10043000648094804003020539E4F53EF53F742F53
:10044000253FF8E4F6053FE53F7002053E640A45A6
:100450003E70EBE50A75F00A84F512E50A75F00ABC
:100460008485F013E51175F00A84F514E51175F033
:100470000A8485F015E4F516F517850B1812062881
:100480002081367F887E13120CDC20812C3081FD88
:10049000E53A45397008D50A20750A0C801BE53A03
:1004A00064014539700E1511E511C3943C400A757D
:1004B000113B8005050B530B0120823B7F887E1387
:1004C000120CDC2082313082FDE53A4539700E0590
:1004D0000AE50AD3940C401F750A01801AE53A64B4
:1004E000014539700D0511E51175F03C8485F01159
:1004F0008005050B530B012083237F887E13120C8C
:10050000DC2083193083FD053AE53A70020539AEE7
:1005100039FF7C007D031203D48C398D3A3080037F
:100520000204297F887E13120CDC30800302042928
:100530003080FD12016E020429E50A75F03CA47CAE
:10054000002511FBEC35F0FAAF0B7E007C027DD06C
:1005500012036DEF2BFFEE3AFEE48F0F8E0EF50DBA
:0C056000F50CF522F5237F64FE020CDC94
:1006D600D280D282D281D283120D00E4F522F52394
:1006E600E4F522F523120A1D1207F412087A120500
:1006F6006CE52475F00584AFF0BF0406752D007512
:100706002E01EF7021E52E6401452D70197F107EB4
:1007160027120CDC1209C9120C40E4F52DF52E7FC8
:10072600107E27120CDC120628AF21AE20AD1FACBE
:100736001EAB0FAA0EA90DA80CC312040A7004D290
:10074600B48002C2B42080107F887E13120CDC2095
:1007560080063080FD1204207FE87EFD120CDC024C
:0207660006E6A5
:100CDC00E4FDFCC3ED9FEC9E50070DBD00010C80A4
:010CEC00F215
:010CED0022E4
:100C04008F508D5180077FD0120B065005120C5661
:0F0C140080F4AF50120B06AF51120B06020C7D8D
:020B49008F52C9
:100B4B00E4F55380077FD0120B065005120C56802C
:100B5B00F4AF52120B06120C6A7FD1120B06120B5A
:100B6B00868F53120CA3C2B67FF47E01120BEBD20D
:0A0B7B00B67FF47E01120BEBAF53BE
:010B8500224D
:080A71008F448B458A4689473A
:100A790080077FD0120B065005120C5680F4AF4444
:100A8900120B06E4F549F54AC3E54A9548E5499448
:100A990000501DAB45AA46A947854A82854983125C
:100AA900030CFF120B06054AE54A70DC054980D89C
:030AB900020C7DAF
:0808FB008F3E8B3F8A408941CA
:1009030080077FD0120B065005120C5680F4AF3EC1
:10091300120B06120C6A7FD1120B06120B86AB3F29
:10092300AA40A941EF120339754400754501C3E597
:10093300459543E54495425020120C90120B86AB2B
:100943003FAA40A941854582854483EF12034B05A5
:1009530045E54570D9054480D5120CA3C2B67FF492
:0E0963007E01120BEBD2B67FF47E01020BEB8D
:10097100E54375F00A84C454F0FEE54375F00A843A
:10098100E5F04EF54CEB75F00A84C454F0FEEB75BE
:10099100F00A84E5F04EF54DED75F00A84C454F08B
:1009A100FEED75F00A84E5F04EF54EEF1460080493
:1009B1007008434E408003434E607B007A00794CBF
:0809C100754803E4FF020A710E
:10087A007B007A00794C754200754303E4FF120845
:10088A00FB854C4BE54B547FC4540F75F00AA4FF0B
:10089A00E54B540F2FF54C854D4BE54BC4540F7562
:1008AA00F00AA4FFE54B540F2FF54DE54E30E62331
:1008BA0030E505754F018003E4F54F854E4BE54B56
:1008CA00541FC4540F75F00AA4FFE54B540F2FF5BB
:1008DA004E8017854E4BE54BC4540F75F00AA4FFA2
:1008EA00E54B540F2FF54E754F027B007A00794C79
:0108FA0022DB
:100ABC00754C04EF75F00A84C454F0FEEF75F00A1F
:100ACC0084E5F04EF54DED75F00A84C454F0FFED5D
:100ADC0075F00A84E5F04FF54EEB75F00A84C454BA
:100AEC00F0FFEB75F00A84E5F04FF54F7B007A00D0
:0A0AFC00794C7548047F03020A716B
:100A1D007B007A00794C7542007543047F03120800
:100A2D00FB854D4BE54BC4540F75F00AA4FFE54B08
:100A3D00540F2FF54D854E4BE54BC4540F75F00AF1
:100A4D00A4FFE54B540F2FF54E854F4BE54BC4548A
:100A5D000F75F00AA4FFE54B540F2FF54F7B007A6D
:040A6D0000794C229E
:100774000206D6E493A3F8E493A34003F68001F2BF
:1007840008DFF48029E493A3F85407240CC8C33386
:10079400C4540F4420C8834004F456800146F6DF55
:1007A400E4800B0102040810204080900C23E47EB6
:1007B400019360BCA3FF543F30E509541FFEE4934A
:1007C400A360010ECF54C025E060A840B8E493A311
:1007D400FAE493A3F8E493A3C8C582C8CAC583CA3C
:1007E400F0A3C8C582C8CAC583CADFE9DEE780BEF4
:010C3F0000B4
:1002D100C2D530F707B2D563F0FF05F030E70CB2B5
:1002E100D5F4048463F0FF05F080018430D502F475
:0202F1000422E5
:1002F300BB010689828A83E0225002E722BBFE0209
:09030300E32289828A83E493223B
:10030C00BB010CE58229F582E5833AF583E02250A6
:10031C0006E92582F8E622BBFE06E92582F8E222F0
:0D032C00E58229F582E5833AF583E493220A
:10033900BB010689828A83F0225002F722BBFE01A3
:02034900F3229D
:10034B00F8BB010DE58229F582E5833AF583E8F0E8
:10035B00225006E92582C8F622BBFE05E92582C894
:02036B00F2227C
:10036D00EF8DF0A4A8F0CF8CF0A428CE8DF0A42EA4
:02037D00FE225E
:10037F00BC000BBE0029EF8DF084FFADF022E4CC62
:10038F00F875F008EF2FFFEE33FEEC33FCEE9DEC2B
:10039F00984005FCEE9DFE0FD5F0E9E4CEFD22ED71
:1003AF00F8F5F0EE8420D21CFEADF075F008EF2FBB
:1003BF00FFED33FD4007985006D5F0F222C398FDAC
:0503CF000FD5F0EA2249
:1003D400C2D5EC30E709B2D5E4C39DFDE49CFCEE44
:1003E40030E715B2D5E4C39FFFE49EFE12037FC33A
:1003F400E49DFDE49CFC800312037F30D507C3E435
:060404009FFFE49EFE22B2
:10040A00EB9FF5F0EA9E42F0E99D42F0EC6480C869
:06041A0064809845F02209
:00000001FF
