:030000000205F402
:0C05F400787FE4F6D8FD75815102063BCB
:0D0B2B007FFA7E00120B38D2B77FFA7E00F1
:100B38007C007D0F120371E4FDFCC3ED9FEC9E5019
:080B4800070DBD00010C80F255
:010B50002282
:050C4300D2B6D2B72279
:100B8900D2B7D2B67FF47E01120B38C2B67FF47E9B
:040B990001020B3812
:100B9D00C2B7120B34D2B6120B2BC2B67FFA7E003F
:030BAD00020B3800
:100BB000C2B7120B34C2B6120B2BD2B67FFA7E002C
:030BC000020B38ED
:100BC300C2B7120B34C2B6120B34D2B77FF47E0114
:030BD300020B38DA
:100BD600C2B7120B34D2B6120B34D2B77FF47E01F1
:030BE600020B38C7
:020A5300AB07EF
:100A5500E4FAC2B7120B34EBA802088002C333D8FC
:100A6500FC30E704D2B68002C2B6120B34D2B77F8F
:100A7500F47E01120B380ABA08D8C2B7D2B67FF491
:100A85007E01120B38D2B77FF47E01120B38A2B665
:010A9500223E
:100AD300E4FBFAC2B7D2B67FF47E01120B2FA2B6A3
:100AE300E433F9C374079AFFE9A807088002C33304
:0D0AF300D8FC4203120B340ABA08D8AF0336
:010B000022D2
:100B700002220000010A01011100010B00013914D9
:080B800002370000020800002A
:100BE900758910758DB8758B0CD28E308FFDC28EBC
:030BF900C28F2286
:100BFC00758910758DFF758BF1D28E308FFDC28E7D
:030C0C00C28F2272
:080C3B00C2B1120BE9D2B12293
:0A0C310020B1FD30B1FD20B1FD221D
:100B0100E4FFFEFDFC30B1FD120BFCEF25E0FFEE32
:100B110033FE30B106EF4401FF800020B1FD0DBD71
:090B210000010CED64084C70DCCD
:010B2A0022A8
:10091600120C3B120C31120B018E2B8F2C120B0179
:100926008E278F28120B018E298F2A120B018E25F6
:100936008F26120B018E1B8F1CE52C2528FFE52B1D
:100946003527FEE52A2FFFE5293EFEE5262FFFE5A2
:10095600253EFEEF651C7003EE651B600280B1AE9E
:0409660029AF2A2269
:100C2100EF75F00A84F535EF75F00A8485F0362208
:10085E009000011202FEF51075F00A84F52DE510D8
:10086E0075F00A8485F02E9000021202FEF51D75B9
:10087E00F00A84F52FE51D75F00A8485F030AF3946
:10088E00EF75F00A1202C3F531AF39EF75F00A12A7
:10089E0002C385F0329000031202FEFFF53B75F0A5
:1008AE000A84F533E53B75F00A8485F0348F3B22DC
:100680009000021202FEFFF51975F00A84F512E5DA
:100690001975F00A8485F0139000011202FEF53AF4
:1006A00075F00A84F514E53A75F00A8485F01512A0
:1006B00002E5F52475F00A84F516E52475F00A8440
:1006C00085F0179000031202FEF51AF518EF339526
:1006D000E0FE7C007D3C12035F9000011202FEFDF3
:1006E0003395E0FCEF2DFBEE3CFAAF1A7E007C0266
:1006F0007DD012035FEF2BFFEE3AFEE48F218E20B8
:05070000F51FF51E22AB
:10055A00E518B40104D2B38012E518700CC2B37F57
:10056A0064FE120C0FD2B2800BC2B37F647E0012FB
:10057A000C0FC2B2E4F53E742D253EF8E6F5A07FD5
:10058A000A7E00120C0F853E907F0A7E00120C0F25
:10059A00C2B07F0A7E00120C0FD2B07F0A7E001210
:1005AA000C0F053EC3E53E6480948A40CAE4F53EDA
:1005BA007412253EF8E6F5A07F0A7E00120C0FE5BC
:1005CA003E240AF5907F0A7E00120C0FC2B07F0A01
:1005DA007E00120C0FD2B07F0A7E00120C0F053E6D
:0905EA00C3E53E6480948640C71D
:0105F30022E5
:10000300E4F508F509F537F5382080337FE87E03FA
:10001300120C0F2080293080FD752200752302E524
:100023000964014508700C852441AB3AAD19AF1A38
:100033001208BE754104AB3BAD1DAF10020A09E4C3
:10004300FF7E0A782DE4F608DEFC7E007F0AE519C0
:1000530075F00A84F512E51975F00A8485F013E545
:100063003A75F00A84F514E53A75F00A8485F015BB
:10007300E52475F00A84F516E52475F00A8485F005
:1000830017851A1812055A2081527FE87E03120C35
:100093000F2081487508007509013081FDE537702F
:1000A3003BE53814601514602014602B2403702C76
:1000B3001519E519702675190C8021153AE53AC30F
:1000C300943C4018753A3B80131524E524C3943CB3
:1000D300400A75243B8005051A531A012082537F79
:1000E300E87E03120C0F2082497508007509013060
:1000F30082FDE537703CE538146018146022146003
:100103002C2403702D0519E519D3940C402475197B
:1001130001801F053AE53A75F03C8485F03A801278
:100123000524E52475F03C8485F0248005051A53E5
:100133001A012083237FE87E03120C0F20831930DA
:1001430083FD0538E53870020537AE37FF7C007D47
:10015300041203C68C378D387F647E00120C0F02A5
:02016300000C8E
:10016500E4F537F538C3E5239402E52264809480ED
:1001750040030202C2E4FF7E067812E4F608DEFCC4
:100185007E007F06751802E4F535F536E51075F045
:100195000A84F52DE51075F00A8485F02EE51D75A8
:1001A500F00A84F52FE51D75F00A8485F030E539F0
:1001B50075F00A84F531E53975F00A8485F032E584
:1001C5003B75F00A84F533E53B75F00A8485F03418
:1001D50012055A20814D7FE87E03120C0F208143C2
:1001E5003081FDE537703CE53814601514601A144C
:1001F50060252403702D1510E510702775101F80DC
:1002050022D51D1F751D0C801A1539E539D3946348
:100215004011753963800C153BE53BD3946340036E
:10022500753B632082547FE87E03120C0F20824ABF
:100235003082FDE5377043E53814601814602314E7
:10024500602D240370340510E510D3941F402B75E1
:1002550010018026051DE51DD3940C401D751D015B
:1002650080180539E53975F0648485F039800B050A
:100275003BE53B75F0648485F03B2083237FE87E76
:1002850003120C0F2083193083FD0538E538700201
:100295000537AE37FF7C007D041203C68C378D38D9
:1002A5002080107FE87E03120C0F2080063080FD31
:0D02B5001200037F647E00120C0F02016A2C
:0102C2002219
:10041200E4F53CF53DF537F538C3E5239402E522D2
:1004220064809480400302052CE4F53CF53D742D74
:10043200253DF8E4F6053DE53D7002053C640A45BC
:100442003C70EBE50A75F00A84F512E50A75F00ACC
:100452008485F013E51175F00A84F514E51175F041
:100462000A8485F015E4F516F517850B1812055A5E
:100472002081367FE87E03120C0F20812C3081FD13
:10048200E53845377008D50A20750A0C801BE53817
:1004920064014537700E1511E511C3943C400A758D
:1004A200113B8005050B530B0120823B7FE87E0345
:1004B200120C0F2082313082FDE5384537700E056F
:1004C2000AE50AD3940C401F750A01801AE53864C4
:1004D200014537700D0511E51175F03C8485F01169
:1004E2008005050B530B012083237FE87E03120C4A
:1004F2000F2083193083FD0538E53870020537AEC9
:1005020037FF7C007D031203C68C378D38208010A4
:100512007FE87E03120C0F2080063080FD120165F9
:100522007F647E00120C0F02041BE50A75F03CA4E6
:100532007C002511FBEC35F0FAAF0B7E007C027DCE
:10054200D012035FEF2BFFEE3AFEE48F0F8E0EF513
:070552000DF50CF522F52365
:01055900227F
:1007FC00D280D282D281D283120C43E4F522F5232B
:10080C00E4F522F52312096A12085E120705120696
:10081C0080120916120C2112055AAF21AE20AD1F01
:10082C00AC1EAB0FAA0EA90DA80CC31203FC7004CE
:10083C00D2B48002C2B42080107FE87E03120C0F69
:10084C002080063080FD1204127F887E13120C0F5C
:02085C0080AE6C
:100C0F00E4FDFCC3ED9FEC9E50070DBD00010C8071
:010C1F00F2E2
:010C200022B1
:100B51008F4E8D4F80077FD0120A535005120B899B
:0F0B610080F4AF4E120A53AF4F120A53020BB07B
:020A96008F507F
:100A9800E4F55180077FD0120A535005120B898064
:100AA800F4AF50120A53120B9D7FD1120A53120A47
:100AB800D38F51120BD6C2B67FF47E01120B38D2F7
:0A0AC800B67FF47E01120B38AF5127
:010AD2002201
:0809BE008F428B438A448945F6
:1009C60080077FD0120A535005120B8980F4AF427C
:1009D600120A53E4F547F548C3E5489546E54794BA
:1009E60000501DAB43AA44A945854882854783121A
:1009F60002FEFF120A530548E54870DC054780D819
:030A0600020BB030
:080786008F3C8B3D8A3E893F48
:10078E0080077FD0120A535005120B8980F4AF3CBC
:10079E00120A53120B9D7FD1120A53120AD3AB3D8C
:1007AE00AA3EA93FEF12032B754200754301C3E524
:1007BE00439541E54295405020120BC3120AD3AB2C
:1007CE003DAA3EA93F854382854283EF12033D0534
:1007DE0043E54370D9054280D5120BD6C2B67FF4DD
:0E07EE007E01120B38D2B67FF47E01020B386A
:1008BE00E54175F00A84C454F0FEE54175F00A84F2
:1008CE00E5F04EF54AEB75F00A84C454F0FEEB7574
:1008DE00F00A84E5F04EF54BED75F00A84C454F041
:1008EE00FEED75F00A84E5F04EF54CEF1460080449
:1008FE007008434C408003434C607B007A00794A79
:08090E00754603E4FF0209BE77
:100705007B007A00794A754000754103E4FF1207C2
:1007150086854A49E549547FC4540F75F00AA4FFFC
:10072500E549540F2FF54A854B49E549C4540F75E2
:10073500F00AA4FFE549540F2FF54BE54C30E623AD
:1007450030E505754D018003E4F54D854C49E549D6
:10075500541FC4540F75F00AA4FFE549540F2FF533
:100765004C8017854C49E549C4540F75F00AA4FF20
:10077500E549540F2FF54C754D027B007A00794AF7
:010785002251
:100A0900754A04EF75F00A84C454F0FEEF75F00AD4
:100A190084E5F04EF54BED75F00A84C454F0FFED12
:100A290075F00A84E5F04FF54CEB75F00A84C4546F
:100A3900F0FFEB75F00A84E5F04FF54D7B007A0085
:0A0A4900794A7546047F030209BED6
:10096A007B007A00794A7540007541047F031207BB
:10097A0086854B49E549C4540F75F00AA4FFE54939
:10098A00540F2FF54B854C49E549C4540F75F00AAD
:10099A00A4FFE549540F2FF54C854D49E549C45448
:1009AA000F75F00AA4FFE549540F2FF54D7B007A25
:0409BA0000794A2254
:100600000207FCE493A3F8E493A34003F68001F20D
:1006100008DFF48029E493A3F85407240CC8C333FB
:10062000C4540F4420C8834004F456800146F6DFCA
:10063000E4800B0102040810204080900B70E47EDF
:10064000019360BCA3FF543F30E509541FFEE493BF
:10065000A360010ECF54C025E060A840B8E493A386
:10066000FAE493A3F8E493A3C8C582C8CAC583CAB1
:10067000F0A3C8C582C8CAC583CADFE9DEE780BE69
:010B8800006C
:1002C300C2D530F707B2D563F0FF05F030E70CB2C3
:1002D300D5F4048463F0FF05F080018430D502F483
:0202E3000422F3
:1002E500BB010689828A83E0225002E722BBFE0217
:0902F500E32289828A83E493224A
:1002FE00BB010CE58229F582E5833AF583E02250B5
:10030E0006E92582F8E622BBFE06E92582F8E222FE
:0D031E00E58229F582E5833AF583E4932218
:10032B00BB010689828A83F0225002F722BBFE01B1
:02033B00F322AB
:10033D00F8BB010DE58229F582E5833AF583E8F0F6
:10034D00225006E92582C8F622BBFE05E92582C8A2
:02035D00F2228A
:10035F00EF8DF0A4A8F0CF8CF0A428CE8DF0A42EB2
:02036F00FE226C
:10037100BC000BBE0029EF8DF084FFADF022E4CC70
:10038100F875F008EF2FFFEE33FEEC33FCEE9DEC39
:10039100984005FCEE9DFE0FD5F0E9E4CEFD22ED7F
:1003A100F8F5F0EE8420D21CFEADF075F008EF2FC9
:1003B100FFED33FD4007985006D5F0F222C398FDBA
:0503C1000FD5F0EA2257
:1003C600C2D5EC30E709B2D5E4C39DFDE49CFCEE52
:1003D60030E715B2D5E4C39FFFE49EFE120371C356
:1003E600E49DFDE49CFC800312037130D507C3E451
:0603F6009FFFE49EFE22C1
:1003FC00EB9FF5F0EA9E42F0E99D42F0EC6480C878
:06040C0064809845F02217
:00000001FF
