:0300000002075B99
:0C075B00787FE4F6D8FD75817F0207A2CC
:0D0C8E007FFA7E00120C9BD2B77FFA7E0029
:100C9B007C007D0F12056CE4FDFCC3ED9FEC9E50B8
:080CAB00070DBD00010C80F2F1
:010CB300221E
:050D9700D2B6D2B72224
:100CED00D2B7D2B67FF47E01120C9BC2B67FF47ED2
:040CFD0001020C9B49
:100D0100C2B7120C97D2B6120C8EC2B67FFA7E0011
:030D1100020C9B36
:100D1400C2B7120C97C2B6120C8ED2B67FFA7E00FE
:030D2400020C9B23
:100D2700C2B7120C97C2B6120C97D2B77FF47E01E6
:030D3700020C9B10
:100D3A00C2B7120C97D2B6120C97D2B77FF47E01C3
:030D4A00020C9BFD
:020B7E00AB07C3
:100B8000E4FAC2B7120C97EBA802088002C333D86C
:100B9000FC30E704D2B68002C2B6120C97D2B77FFF
:100BA000F47E01120C9B0ABA08D8C2B7D2B67FF401
:100BB0007E01120C9BD2B77FF47E01120C9BA2B671
:010BC0002212
:100C3600E4FBFAC2B7D2B67FF47E01120C92A2B6DA
:100C4600E433F9C374079AFFE9A807088002C3339F
:0D0C5600D8FC4203120C970ABA08D8AF036D
:010C6300226E
:100BFE00024B00000A0A010101010101010101017C
:100C0E000A33000000000000000000000A28000067
:100C1E0000000000000000000165140263000002E5
:070C2E00080000025700005E
:100D4D00758910758DB8758B0CD28E308FFDC28E56
:030D5D00C28F2220
:100D6000758910758DFF758BF1D28E308FFDC28E17
:030D7000C28F220D
:080D8F00C2B1120D4DD2B122D8
:0A0D850020B1FD30B1FD20B1FD22C8
:100C6400E4FFFEFDFC30B1FD120D60EF25E0FFEE68
:100C740033FE30B106EF4401FF800020B1FD0DBD0D
:090C840000010CED64084C70DC69
:010C8D002244
:100A4100120D8F120D85120C648E558F56120C6487
:100A51008E518F52120C648E538F54120C648E4F30
:100A61008F50120C648E468F47E5562552FFE5558F
:100A71003551FEE5542FFFE5533EFEE5502FFFE5CE
:100A81004F3EFEEF65477003EE6546600280B1AEF2
:040A910053AF5422E9
:100CD3008F4EE54E75F00A84F561E54E75F00A8492
:0A0CE30085F0627F647E00020D734D
:1007E7008B688A69896A9000011204F9F53275F0FD
:1007F7000A84F559E53275F00A8485F05A7F647EDC
:1008070000120D73AB68AA69A96A9000021204F975
:10081700F54875F00A84F55BE54875F00A8485F0BC
:100827005C7F647E00120D73AF65EF75F00A1204EA
:10083700BEF55DAF65EF75F00A1204BE85F05EABDD
:1008470068AA69A96A9000031204F9FFF56775F0B1
:100857000A84F55FE56775F00A8485F0608F677F26
:06086700647E00020D7327
:1005F7008B688A69896A9000021204F9F54475F0DC
:100607000A84F53DE54475F00A8485F03E7F647EF3
:1006170000120D73AB68AA69A96A9000011204F968
:10062700F56675F00A84F53FE56675F00A8485F08E
:10063700407F647E00120D73AB68AA69A96A120431
:10064700E0F54D75F00A84F541E54D75F00A8485AE
:10065700F0427F647E00120D73AB68AA69A96A90A5
:1006670000031204F9F545F5439000021204F9FF5F
:100677003395E0FE7C007D3C12055A900001120480
:10068700F9FD3395E0FCEF2DFBEE3CFAAF457E001C
:100697007C027DD012055AEF2BF54AEE3AF5497FD9
:0606A700647E00020D73E9
:1006AD00E543B40104D2B38012E543700CC2B37FAD
:1006BD0064FE120D73D2B2800BC2B37F647E001242
:1006CD000D73C2B27F647E00120D73E4F56C745924
:1006DD00256CF8E6F5A07F0A7E00120D73856C90EF
:1006ED007F0A7E00120D73C2B07F0A7E00120D7359
:1006FD00D2B07F0A7E00120D73056CC3E56C648069
:10070D00948A40CA7F647E00120D73E4F56C743DCB
:10071D00256CF8E6F5A07F0A7E00120D73E56C24BA
:10072D000AF5907F0A7E00120D73C2B07F0A7E001B
:10073D00120D73D2B07F0A7E00120D73056CC3E5E6
:0E074D006C6480948640C77F647E00020D734A
:1001F000E4F508F509F563F5642080367F887E1301
:10020000120D7320802C3080FD754B00754C02E57B
:100210000964014508700C854D6FAB66AD44AF4570
:100220001209E9756F04AB67AD48AF32120B3402A7
:100230000354E4FF7E0A7859E4F608DEFC7E007F72
:100240000AE54475F00A84F53DE54475F00A8485B5
:10025000F03EE56675F00A84F53FE56675F00A84C0
:1002600085F040E54D75F00A84F541E54D75F00ADD
:100270008485F0428545431206AD2081527F887EF9
:1002800013120D732081487508007509013081FD36
:10029000E563703BE56414601514602014602B2442
:1002A00003702C1544E544702675440C80211566B6
:1002B000E566C3943C401875663B8013154DE54DCB
:1002C000C3943C400A754D3B8005054553450120CC
:1002D00082537F887E13120D732082497508007542
:1002E00009013082FDE563703CE564146018146018
:1002F0002214602C2403702D0544E544D3940C4053
:1003000024754401801F0566E56675F03C8485F020
:10031000668012054DE54D75F03C8485F04D8005F5
:1003200005455345013083030201F97F887E13128E
:100330000D733083030201F93083FD0564E56470B9
:10034000020563AE63FF7C007D041205C18C638DE2
:0B035000640201F97F647E00020D735F
:10035B00E4F563F564C3E54C9402E54B648094804B
:10036B0040030204B7E4FF7E06783DE4F608DEFCAA
:10037B007E007F06754302E4F561F562E53275F0A8
:10038B000A84F559E53275F00A8485F05AE548750B
:10039B00F00A84F55BE54875F00A8485F05CE56549
:1003AB0075F00A84F55DE56575F00A8485F05EE508
:1003BB006775F00A84F55FE56775F00A8485F06070
:1003CB001206AD20814D7F887E13120D7320814361
:1003DB003081FDE563703CE56414601514601A14FC
:1003EB0060252403702D1532E532702775321F807E
:1003FB0022D5481F75480C801A1565E565D39463A3
:10040B004011756563800C1567E567D394634003F2
:10041B007567632082547F887E13120D7320824A86
:10042B003082FDE5637043E5641460181460231497
:10043B00602D240370340532E532D3941F402B75A5
:10044B00320180260548E548D3940C401D754801C0
:10045B0080180565E56575F0648485F065800B058E
:10046B0067E56775F0648485F0672083237F887E5A
:10047B0013120D732083193083FD0564E56470023C
:10048B000563AE63FF7C007D041205C18C638D6434
:10049B003080030203607F887E13120D733080035C
:1004AB000203603080FD1201F00203607F647E0066
:0304BB00020D73BC
:10000300E4F568F569F56AF56BF563F564C3E54CEA
:100013009402E54B648094804003020191E4F56A05
:10002300F56B7459256BF8E4F6056BE56B70020507
:100033006A6408456A70EBAF69740A2FF8E6FE75C7
:10004300F00A84F53DEE75F00A8485F03E74332F93
:10005300F8E6FF75F00A84F53FEF75F00A8485F042
:1000630040E4F541F542E5692401FBE43568FA7C97
:10007300007D0AAF03FE1205C18F617C007D0AAFCC
:1000830003AE021205C18D6274282569F8E6F543B3
:100093001206AD2081517F887E13120D7320814794
:1000A3003081FDE56445637012AF69740A2FF81659
:1000B300740A2FF8E67030760C802CE564640145F1
:1000C300637015AF6974332FF81674332FF8E6C3D2
:1000D300943C4013763B800FAF6974282FF8067465
:1000E300282FF8E65401F62082517F887E13120DE3
:1000F300732082473082FDE56445637015AF6974F0
:100103000A2FF806740A2FF8E6D3940C402D7601D3
:100113008029E56464014563AF69701274332FF875
:100123000674332FF8E675F03C84A6F0800D74282E
:100133002FF80674282FF8E65401F62083237F88CE
:100143007E13120D732083193083FD0564E56470FB
:10015300020563AE63FF7C007D031205C18C638DD2
:10016300643080030200107F887E13120D73308089
:10017300030200103080FD0569E5697002056864BB
:100183000A4568600302001012035B020010E4F5E5
:1001930068F569AD69740A2DF8E675F03CA4FF743F
:1001A300332DF8E67C002FFBEC35F0FAA9697428AF
:1001B30029F8E6FF7E007C027DD012055AEF2BFF63
:1001C300EE3AFEE925E02414F8A60608A607E4F5AE
:1001D3004BF54C7F64FE120D730569E569700205EA
:0C01E30068C3940AE5686480948040A71B
:0101EF0022ED
:10086D00D280D282D281D283120D97E4F54BF54C12
:10087D00E4F54BF54C120A951207E71208F2120532
:10088D00F7E54D75F00584AFF0BF0406755700759B
:10089D005801EF7021E5586401455770197F107E9E
:1008AD0027120D73120A41120CD3E4F557F5587F38
:1008BD00107E27120D731206AD7414B54A0974001B
:1008CD00B54904D2B48002C2B42080107F887E1353
:1008DD00120D732080063080FD1200037FE87EFD2F
:0508ED00120D73808B69
:100D7300E4FDFCC3ED9FEC9E50070DBD00010C800C
:010D8300F27D
:010D8400224C
:100CB4008F7C8D7D80077FD0120B7E5005120CED4A
:0F0CC40080F4AF7C120B7EAF7D120B7E020D14FD
:020BC1008F7E25
:100BC300E4F57F80077FD0120B7E5005120CED8079
:100BD300F4AF7E120B7E120D017FD1120B7E120C2D
:100BE300368F7F120D3AC2B67FF47E01120C9BD270
:0A0BF300B67FF47E01120C9BAF7F69
:010BFD0022D5
:080AE9008F708B718A72897312
:100AF10080077FD0120B7E5005120CED80F4AF7091
:100B0100120B7EE4F575F576C3E5769574E575947B
:100B110000501DAB71AA72A9738576828575831207
:100B210004F9FF120B7E0576E57670DC057580D839
:030B3100020D149E
:080973008F688B698A6A896BA9
:10097B0080077FD0120B7E5005120CED80F4AF6810
:10098B00120B7E120D017FD1120B7E120C36AB694E
:10099B00AA6AA96BEF120526756E00756F01C3E588
:1009AB006F956DE56E956C5020120D27120C36ABC2
:1009BB0069AA6AA96B856F82856E83EF120538056C
:1009CB006FE56F70D9056E80D5120D3AC2B67FF404
:0E09DB007E01120C9BD2B67FF47E01020C9BB3
:1009E900E56F75F00A84C454F0FEE56F75F00A846A
:1009F900E5F04EF578EB75F00A84C454F0FEEB751A
:100A0900F00A84E5F04EF579ED75F00A84C454F0E6
:100A1900FEED75F00A84E5F04EF57AEF14600804EE
:100A29007008437A408003437A607B007A007978C2
:080A3900757403E4FF020AE9F1
:1008F2007B007A007978756C00756D03E4FF12094C
:1009020073857877E577547FC4540F75F00AA4FF96
:10091200E577540F2FF578857977E577C4540F750D
:10092200F00AA4FFE577540F2FF579E57A30E62334
:1009320030E505757B018003E4F57B857A77E57701
:10094200541FC4540F75F00AA4FFE577540F2FF516
:100952007A8017857A77E577C4540F75F00AA4FF79
:10096200E577540F2FF57A757B027B007A00797850
:010972002262
:100B3400757804EF75F00A84C454F0FEEF75F00A7A
:100B440084E5F04EF579ED75F00A84C454F0FFEDB8
:100B540075F00A84E5F04FF57AEB75F00A84C45415
:100B6400F0FFEB75F00A84E5F04FF57B7B007A002B
:0A0B740079787574047F03020AE922
:100A95007B007A007978756C00756D047F03120907
:100AA50073857977E577C4540F75F00AA4FFE57768
:100AB500540F2FF579857A77E577C4540F75F00AC9
:100AC500A4FFE577540F2FF57A857B77E577C45436
:100AD5000F75F00AA4FFE577540F2FF57B7B007A9D
:040AE50000797822FA
:1007670002086DE493A3F8E493A34003F68001F233
:1007770008DFF48029E493A3F85407240CC8C33393
:10078700C4540F4420C8834004F456800146F6DF62
:10079700E4800B0102040810204080900BFEE47EE9
:1007A700019360BCA3FF543F30E509541FFEE49357
:1007B700A360010ECF54C025E060A840B8E493A31E
:1007C700FAE493A3F8E493A3C8C582C8CAC583CA49
:1007D700F0A3C8C582C8CAC583CADFE9DEE780BE01
:010C350000BE
:1004BE00C2D530F707B2D563F0FF05F030E70CB2C6
:1004CE00D5F4048463F0FF05F080018430D502F486
:0204DE000422F6
:1004E000BB010689828A83E0225002E722BBFE021A
:0904F000E32289828A83E493224D
:1004F900BB010CE58229F582E5833AF583E02250B8
:1005090006E92582F8E622BBFE06E92582F8E22201
:0D051900E58229F582E5833AF583E493221B
:10052600BB010689828A83F0225002F722BBFE01B4
:02053600F322AE
:10053800F8BB010DE58229F582E5833AF583E8F0F9
:10054800225006E92582C8F622BBFE05E92582C8A5
:02055800F2228D
:10055A00EF8DF0A4A8F0CF8CF0A428CE8DF0A42EB5
:02056A00FE226F
:10056C00BC000BBE0029EF8DF084FFADF022E4CC73
:10057C00F875F008EF2FFFEE33FEEC33FCEE9DEC3C
:10058C00984005FCEE9DFE0FD5F0E9E4CEFD22ED82
:10059C00F8F5F0EE8420D21CFEADF075F008EF2FCC
:1005AC00FFED33FD4007985006D5F0F222C398FDBD
:0505BC000FD5F0EA225A
:1005C100C2D5EC30E709B2D5E4C39DFDE49CFCEE55
:1005D10030E715B2D5E4C39FFFE49EFE12056CC35C
:1005E100E49DFDE49CFC800312056C30D507C3E457
:0605F1009FFFE49EFE22C4
:00000001FF
