:030000000205F105
:0C05F100787FE4F6D8FD758151020638D1
:0D0B28007FFA7E00120B35D2B77FFA7E00F7
:100B35007C007D0F12036FE4FDFCC3ED9FEC9E501E
:080B4500070DBD00010C80F258
:010B4D002285
:050C4000D2B6D2B7227C
:100B8600D2B7D2B67FF47E01120B35C2B67FF47EA1
:040B960001020B3518
:100B9A00C2B7120B31D2B6120B28C2B67FFA7E0048
:030BAA00020B3506
:100BAD00C2B7120B31C2B6120B28D2B67FFA7E0035
:030BBD00020B35F3
:100BC000C2B7120B31C2B6120B31D2B77FF47E011D
:030BD000020B35E0
:100BD300C2B7120B31D2B6120B31D2B77FF47E01FA
:030BE300020B35CD
:020A5000AB07F2
:100A5200E4FAC2B7120B31EBA802088002C333D802
:100A6200FC30E704D2B68002C2B6120B31D2B77F95
:100A7200F47E01120B350ABA08D8C2B7D2B67FF497
:100A82007E01120B35D2B77FF47E01120B35A2B66E
:010A92002241
:100AD000E4FBFAC2B7D2B67FF47E01120B2CA2B6A9
:100AE000E433F9C374079AFFE9A807088002C33307
:0D0AF000D8FC4203120B310ABA08D8AF033C
:010AFD0022D6
:100B6D0002220000010A01011100010B00013914DC
:080B7D0002370000020800002D
:100BE600758910758DB8758B0CD28E308FFDC28EBF
:030BF600C28F2289
:100BF900758910758DFF758BF1D28E308FFDC28E80
:030C0900C28F2275
:080C3800C2B1120BE6D2B12299
:0A0C2E0020B1FD30B1FD20B1FD2220
:100AFE00E4FFFEFDFC30B1FD120BF9EF25E0FFEE39
:100B0E0033FE30B106EF4401FF800020B1FD0DBD74
:090B1E0000010CED64084C70DCD0
:010B270022AB
:10091300120C38120C2E120AFE8E2B8F2C120AFE8A
:100923008E278F28120AFE8E298F2A120AFE8E2501
:100933008F26120AFE8E1B8F1CE52C2528FFE52B24
:100943003527FEE52A2FFFE5293EFEE5262FFFE5A5
:10095300253EFEEF651C7003EE651B600280B1AEA1
:0409630029AF2A226C
:100C1E00EF75F00A84F535EF75F00A8485F036220B
:10085B009000011202FCF51075F00A84F52DE510DD
:10086B0075F00A8485F02E9000021202FCF51D75BE
:10087B00F00A84F52FE51D75F00A8485F030AF3949
:10088B00EF75F00A1202C1F531AF39EF75F00A12AC
:10089B0002C185F0329000031202FCFFF53B75F0AC
:1008AB000A84F533E53B75F00A8485F0348F3B22DF
:10067D009000021202FCFFF51975F00A84F512E5DF
:10068D001975F00A8485F0139000011202FCF53AF9
:10069D0075F00A84F514E53A75F00A8485F01512A3
:1006AD0002E3F52475F00A84F516E52475F00A8445
:1006BD0085F0179000031202FCF51AF518EF33952B
:1006CD00E0FE7C007D3C12035D9000011202FCFDFA
:1006DD003395E0FCEF2DFBEE3CFAAF1A7E007C0269
:1006ED007DD012035DEF2BFFEE3AFEE48F218E20BD
:0506FD00F51FF51E22AF
:10055700E518B40104D2B38012E518700CC2B37F5A
:1005670064FE120C0CD2B2800BC2B37F647E001201
:100577000C0CC2B2E4F53E742D253EF8E6F5A07FDB
:100587000A7E00120C0C853E907F0A7E00120C0C2E
:10059700C2B07F0A7E00120C0CD2B07F0A7E001216
:1005A7000C0C053EC3E53E6480948A40CAE4F53EE0
:1005B7007412253EF8E6F5A07F0A7E00120C0CE5C2
:1005C7003E240AF5907F0A7E00120C0CC2B07F0A07
:1005D7007E00120C0CD2B07F0A7E00120C0C053E76
:0905E700C3E53E6480948640C720
:0105F00022E8
:10000300E4F508F509F537F5382080337FE87E03FA
:10001300120C0C2080293080FD752200752302E527
:100023000964014508700C852441AB3AAD19AF1A38
:100033001208BB754104AB3BAD1DAF10020A06E4C9
:10004300FF7E0A782DE4F608DEFC7E007F0AE519C0
:1000530075F00A84F512E51975F00A8485F013E545
:100063003A75F00A84F514E53A75F00A8485F015BB
:10007300E52475F00A84F516E52475F00A8485F005
:1000830017851A181205572081527FE87E03120C38
:100093000C2081487508007509013081FDE5377032
:1000A3003BE53814601514602014602B2403702C76
:1000B3001519E519702675190C8021153AE53AC30F
:1000C300943C4018753A3B80131524E524C3943CB3
:1000D300400A75243B8005051A531A012082537F79
:1000E300E87E03120C0C2082497508007509013063
:1000F30082FDE537703CE538146018146022146003
:100103002C2403702D0519E519D3940C402475197B
:1001130001801F053AE53A75F03C8485F03A801278
:100123000524E52475F03C8485F0248005051A53E5
:100133001A0130830302000C7FE87E03120C0C309B
:10014300830302000C3083FD0538E5387002053760
:10015300AE37FF7C007D041203C48C378D38020058
:010163000C8F
:10016400E4F537F538C3E5239402E52264809480EE
:1001740040030202C0E4FF7E067812E4F608DEFCC7
:100184007E007F06751802E4F535F536E51075F046
:100194000A84F52DE51075F00A8485F02EE51D75A9
:1001A400F00A84F52FE51D75F00A8485F030E539F1
:1001B40075F00A84F531E53975F00A8485F032E585
:1001C4003B75F00A84F533E53B75F00A8485F03419
:1001D40012055720814D7FE87E03120C0C208143C9
:1001E4003081FDE537703CE53814601514601A144D
:1001F40060252403702D1510E510702775101F80DD
:1002040022D51D1F751D0C801A1539E539D3946349
:100214004011753963800C153BE53BD3946340036F
:10022400753B632082547FE87E03120C0C20824AC3
:100234003082FDE5377043E53814601814602314E8
:10024400602D240370340510E510D3941F402B75E2
:1002540010018026051DE51DD3940C401D751D015C
:1002640080180539E53975F0648485F039800B050B
:100274003BE53B75F0648485F03B2083237FE87E77
:1002840003120C0C2083193083FD0538E538700205
:100294000537AE37FF7C007D041203C48C378D38DC
:1002A4003080030201697FE87E03120C0C30800366
:0C02B4000201693080FD120003020169A4
:0102C000221B
:10041000E4F53CF53DF537F538C3E5239402E522D4
:10042000648094804003020529E4F53CF53D742D79
:10043000253DF8E4F6053DE53D7002053C640A45BE
:100440003C70EBE50A75F00A84F512E50A75F00ACE
:100450008485F013E51175F00A84F514E51175F043
:100460000A8485F015E4F516F517850B1812055763
:100470002081367FE87E03120C0C20812C3081FD18
:10048000E53845377008D50A20750A0C801BE53819
:1004900064014537700E1511E511C3943C400A758F
:1004A000113B8005050B530B0120823B7FE87E0347
:1004B000120C0C2082313082FDE5384537700E0574
:1004C0000AE50AD3940C401F750A01801AE53864C6
:1004D000014537700D0511E51175F03C8485F0116B
:1004E0008005050B530B012083237FE87E03120C4C
:1004F0000C2083193083FD0538E53870020537AECE
:1005000037FF7C007D031203C48C378D38308003A5
:100510000204197FE87E03120C0C308003020419D8
:100520003080FD120164020419E50A75F03CA47CD8
:10053000002511FBEC35F0FAAF0B7E007C027DD07C
:1005400012035DEF2BFFEE3AFEE48F0F8E0EF50DDA
:06055000F50CF522F52375
:010556002282
:1007F900D280D282D281D283120C40E4F522F52331
:10080900E4F522F52312096712085B1207021206A2
:100819007D120913120C1E120557AF21AE20AD1F10
:10082900AC1EAB0FAA0EA90DA80CC31203FA7004D3
:10083900D2B48002C2B42080107FE87E03120C0C6F
:100849002080063080FD1204107F887E13120C0C64
:0208590080AE6F
:100C0C00E4FDFCC3ED9FEC9E50070DBD00010C8074
:010C1C00F2E5
:010C1D0022B4
:100B4E008F4E8D4F80077FD0120A505005120B86A4
:0F0B5E0080F4AF4E120A50AF4F120A50020BAD87
:020A93008F5082
:100A9500E4F55180077FD0120A505005120B86806D
:100AA500F4AF50120A50120B9A7FD1120A50120A53
:100AB500D08F51120BD3C2B67FF47E01120B35D203
:0A0AC500B67FF47E01120B35AF512D
:010ACF002204
:0809BB008F428B438A448945F9
:1009C30080077FD0120A505005120B8680F4AF4285
:1009D300120A50E4F547F548C3E5489546E54794C0
:1009E30000501DAB43AA44A945854882854783121D
:1009F30002FCFF120A500548E54870DC054780D821
:030A0300020BAD36
:080783008F3C8B3D8A3E893F4B
:10078B0080077FD0120A505005120B8680F4AF3CC5
:10079B00120A50120B9A7FD1120A50120AD0AB3D9B
:1007AB00AA3EA93FEF120329754200754301C3E529
:1007BB00439541E54295405020120BC0120AD0AB35
:1007CB003DAA3EA93F854382854283EF12033B0539
:1007DB0043E54370D9054280D5120BD3C2B67FF4E3
:0E07EB007E01120B35D2B67FF47E01020B3573
:1008BB00E54175F00A84C454F0FEE54175F00A84F5
:1008CB00E5F04EF54AEB75F00A84C454F0FEEB7577
:1008DB00F00A84E5F04EF54BED75F00A84C454F044
:1008EB00FEED75F00A84E5F04EF54CEF146008044C
:1008FB007008434C408003434C607B007A00794A7C
:08090B00754603E4FF0209BB7D
:100702007B007A00794A754000754103E4FF1207C5
:1007120083854A49E549547FC4540F75F00AA4FF02
:10072200E549540F2FF54A854B49E549C4540F75E5
:10073200F00AA4FFE549540F2FF54BE54C30E623B0
:1007420030E505754D018003E4F54D854C49E549D9
:10075200541FC4540F75F00AA4FFE549540F2FF536
:100762004C8017854C49E549C4540F75F00AA4FF23
:10077200E549540F2FF54C754D027B007A00794AFA
:010782002254
:100A0600754A04EF75F00A84C454F0FEEF75F00AD7
:100A160084E5F04EF54BED75F00A84C454F0FFED15
:100A260075F00A84E5F04FF54CEB75F00A84C45472
:100A3600F0FFEB75F00A84E5F04FF54D7B007A0088
:0A0A4600794A7546047F030209BBDC
:100967007B007A00794A7540007541047F031207BE
:1009770083854B49E549C4540F75F00AA4FFE5493F
:10098700540F2FF54B854C49E549C4540F75F00AB0
:10099700A4FFE549540F2FF54C854D49E549C4544B
:1009A7000F75F00AA4FFE549540F2FF54D7B007A28
:0409B70000794A2257
:1005FD000207F9E493A3F8E493A34003F68001F214
:10060D0008DFF48029E493A3F85407240CC8C333FE
:10061D00C4540F4420C8834004F456800146F6DFCD
:10062D00E4800B0102040810204080900B6DE47EE5
:10063D00019360BCA3FF543F30E509541FFEE493C2
:10064D00A360010ECF54C025E060A840B8E493A389
:10065D00FAE493A3F8E493A3C8C582C8CAC583CAB4
:10066D00F0A3C8C582C8CAC583CADFE9DEE780BE6C
:010B8500006F
:1002C100C2D530F707B2D563F0FF05F030E70CB2C5
:1002D100D5F4048463F0FF05F080018430D502F485
:0202E1000422F5
:1002E300BB010689828A83E0225002E722BBFE0219
:0902F300E32289828A83E493224C
:1002FC00BB010CE58229F582E5833AF583E02250B7
:10030C0006E92582F8E622BBFE06E92582F8E22200
:0D031C00E58229F582E5833AF583E493221A
:10032900BB010689828A83F0225002F722BBFE01B3
:02033900F322AD
:10033B00F8BB010DE58229F582E5833AF583E8F0F8
:10034B00225006E92582C8F622BBFE05E92582C8A4
:02035B00F2228C
:10035D00EF8DF0A4A8F0CF8CF0A428CE8DF0A42EB4
:02036D00FE226E
:10036F00BC000BBE0029EF8DF084FFADF022E4CC72
:10037F00F875F008EF2FFFEE33FEEC33FCEE9DEC3B
:10038F00984005FCEE9DFE0FD5F0E9E4CEFD22ED81
:10039F00F8F5F0EE8420D21CFEADF075F008EF2FCB
:1003AF00FFED33FD4007985006D5F0F222C398FDBC
:0503BF000FD5F0EA2259
:1003C400C2D5EC30E709B2D5E4C39DFDE49CFCEE54
:1003D40030E715B2D5E4C39FFFE49EFE12036FC35A
:1003E400E49DFDE49CFC800312036F30D507C3E455
:0603F4009FFFE49EFE22C3
:1003FA00EB9FF5F0EA9E42F0E99D42F0EC6480C87A
:06040A0064809845F02219
:00000001FF
